{
  "_format": "hh-sol-artifact-1",
  "contractName": "CrowdFunding",
  "sourceName": "contracts/CrowdFunding.sol",
  "abi": [
    {
      "inputs": [
        {
          "internalType": "address",
          "name": "_owner",
          "type": "address"
        },
        {
          "internalType": "string",
          "name": "_title",
          "type": "string"
        },
        {
          "internalType": "string",
          "name": "_description",
          "type": "string"
        },
        {
          "internalType": "uint256",
          "name": "_deadline",
          "type": "uint256"
        },
        {
          "internalType": "uint256",
          "name": "_goal",
          "type": "uint256"
        },
        {
          "internalType": "string",
          "name": "_image",
          "type": "string"
        }
      ],
      "name": "createProject",
      "outputs": [
        {
          "internalType": "uint256",
          "name": "",
          "type": "uint256"
        }
      ],
      "stateMutability": "nonpayable",
      "type": "function"
    },
    {
      "inputs": [],
      "name": "getBalance",
      "outputs": [
        {
          "internalType": "uint256",
          "name": "",
          "type": "uint256"
        }
      ],
      "stateMutability": "view",
      "type": "function"
    },
    {
      "inputs": [
        {
          "internalType": "uint256",
          "name": "_id",
          "type": "uint256"
        }
      ],
      "name": "getInvestors",
      "outputs": [
        {
          "internalType": "address[]",
          "name": "",
          "type": "address[]"
        },
        {
          "internalType": "uint256[]",
          "name": "",
          "type": "uint256[]"
        }
      ],
      "stateMutability": "view",
      "type": "function"
    },
    {
      "inputs": [],
      "name": "getProjects",
      "outputs": [
        {
          "components": [
            {
              "internalType": "address",
              "name": "owner",
              "type": "address"
            },
            {
              "internalType": "string",
              "name": "title",
              "type": "string"
            },
            {
              "internalType": "string",
              "name": "description",
              "type": "string"
            },
            {
              "internalType": "uint256",
              "name": "deadline",
              "type": "uint256"
            },
            {
              "internalType": "uint256",
              "name": "goal",
              "type": "uint256"
            },
            {
              "internalType": "uint256",
              "name": "currentValue",
              "type": "uint256"
            },
            {
              "internalType": "string",
              "name": "image",
              "type": "string"
            },
            {
              "internalType": "address[]",
              "name": "investors",
              "type": "address[]"
            },
            {
              "internalType": "uint256[]",
              "name": "investments",
              "type": "uint256[]"
            }
          ],
          "internalType": "struct CrowdFunding.Project[]",
          "name": "",
          "type": "tuple[]"
        }
      ],
      "stateMutability": "view",
      "type": "function"
    },
    {
      "inputs": [
        {
          "internalType": "uint256",
          "name": "_id",
          "type": "uint256"
        }
      ],
      "name": "investToProject",
      "outputs": [],
      "stateMutability": "payable",
      "type": "function"
    },
    {
      "inputs": [],
      "name": "numberOfProjects",
      "outputs": [
        {
          "internalType": "uint256",
          "name": "",
          "type": "uint256"
        }
      ],
      "stateMutability": "view",
      "type": "function"
    },
    {
      "inputs": [
        {
          "internalType": "uint256",
          "name": "",
          "type": "uint256"
        }
      ],
      "name": "projects",
      "outputs": [
        {
          "internalType": "address",
          "name": "owner",
          "type": "address"
        },
        {
          "internalType": "string",
          "name": "title",
          "type": "string"
        },
        {
          "internalType": "string",
          "name": "description",
          "type": "string"
        },
        {
          "internalType": "uint256",
          "name": "deadline",
          "type": "uint256"
        },
        {
          "internalType": "uint256",
          "name": "goal",
          "type": "uint256"
        },
        {
          "internalType": "uint256",
          "name": "currentValue",
          "type": "uint256"
        },
        {
          "internalType": "string",
          "name": "image",
          "type": "string"
        }
      ],
      "stateMutability": "view",
      "type": "function"
    }
  ],
  "bytecode": "0x6080604052600060015534801561001557600080fd5b5061189b806100256000396000f3fe6080604052600436106100705760003560e01c806399d985da1161004e57806399d985da14610121578063db5e4c7f1461013d578063dcc6012814610168578063f64bc5081461019357610070565b8063107046bd146100755780631139de55146100b857806312065fe0146100f6575b600080fd5b34801561008157600080fd5b5061009c60048036038101906100979190610b59565b6101d0565b6040516100af9796959493929190610c66565b60405180910390f35b3480156100c457600080fd5b506100df60048036038101906100da9190610b59565b6103ca565b6040516100ed929190610e66565b60405180910390f35b34801561010257600080fd5b5061010b6104da565b6040516101189190610e9d565b60405180910390f35b61013b60048036038101906101369190610b59565b6104e2565b005b34801561014957600080fd5b506101526105aa565b60405161015f9190610e9d565b60405180910390f35b34801561017457600080fd5b5061017d6105b0565b60405161018a9190611183565b60405180910390f35b34801561019f57600080fd5b506101ba60048036038101906101b59190611306565b610986565b6040516101c79190610e9d565b60405180910390f35b60006020528060005260406000206000915090508060000160009054906101000a900473ffffffffffffffffffffffffffffffffffffffff169080600101805461021990611416565b80601f016020809104026020016040519081016040528092919081815260200182805461024590611416565b80156102925780601f1061026757610100808354040283529160200191610292565b820191906000526020600020905b81548152906001019060200180831161027557829003601f168201915b5050505050908060020180546102a790611416565b80601f01602080910402602001604051908101604052809291908181526020018280546102d390611416565b80156103205780601f106102f557610100808354040283529160200191610320565b820191906000526020600020905b81548152906001019060200180831161030357829003601f168201915b50505050509080600301549080600401549080600501549080600601805461034790611416565b80601f016020809104026020016040519081016040528092919081815260200182805461037390611416565b80156103c05780601f10610395576101008083540402835291602001916103c0565b820191906000526020600020905b8154815290600101906020018083116103a357829003601f168201915b5050505050905087565b6060806000808481526020019081526020016000206007016000808581526020019081526020016000206008018180548060200260200160405190810160405280929190818152602001828054801561047857602002820191906000526020600020905b8160009054906101000a900473ffffffffffffffffffffffffffffffffffffffff1673ffffffffffffffffffffffffffffffffffffffff168152602001906001019080831161042e575b50505050509150808054806020026020016040519081016040528092919081815260200182805480156104ca57602002820191906000526020600020905b8154815260200190600101908083116104b6575b5050505050905091509150915091565b600047905090565b60003490506000806000848152602001908152602001600020905080600701339080600181540180825580915050600190039060005260206000200160009091909190916101000a81548173ffffffffffffffffffffffffffffffffffffffff021916908373ffffffffffffffffffffffffffffffffffffffff1602179055508060080182908060018154018082558091505060019003906000526020600020016000909190919091505581816005015461059d9190611476565b8160050181905550505050565b60015481565b6060600060015467ffffffffffffffff8111156105d0576105cf6111db565b5b60405190808252806020026020018201604052801561060957816020015b6105f6610aad565b8152602001906001900390816105ee5790505b50905060005b60015481101561097e576000806000838152602001908152602001600020905080604051806101200160405290816000820160009054906101000a900473ffffffffffffffffffffffffffffffffffffffff1673ffffffffffffffffffffffffffffffffffffffff1673ffffffffffffffffffffffffffffffffffffffff1681526020016001820180546106a290611416565b80601f01602080910402602001604051908101604052809291908181526020018280546106ce90611416565b801561071b5780601f106106f05761010080835404028352916020019161071b565b820191906000526020600020905b8154815290600101906020018083116106fe57829003601f168201915b5050505050815260200160028201805461073490611416565b80601f016020809104026020016040519081016040528092919081815260200182805461076090611416565b80156107ad5780601f10610782576101008083540402835291602001916107ad565b820191906000526020600020905b81548152906001019060200180831161079057829003601f168201915b505050505081526020016003820154815260200160048201548152602001600582015481526020016006820180546107e490611416565b80601f016020809104026020016040519081016040528092919081815260200182805461081090611416565b801561085d5780601f106108325761010080835404028352916020019161085d565b820191906000526020600020905b81548152906001019060200180831161084057829003601f168201915b50505050508152602001600782018054806020026020016040519081016040528092919081815260200182805480156108eb57602002820191906000526020600020905b8160009054906101000a900473ffffffffffffffffffffffffffffffffffffffff1673ffffffffffffffffffffffffffffffffffffffff16815260200190600101908083116108a1575b505050505081526020016008820180548060200260200160405190810160405280929190818152602001828054801561094357602002820191906000526020600020905b81548152602001906001019080831161092f575b50505050508152505083838151811061095f5761095e6114aa565b5b6020026020010181905250508080610976906114d9565b91505061060f565b508091505090565b60008060008060015481526020019081526020016000209050428160030154106109e5576040517f08c379a00000000000000000000000000000000000000000000000000000000081526004016109dc90611593565b60405180910390fd5b878160000160006101000a81548173ffffffffffffffffffffffffffffffffffffffff021916908373ffffffffffffffffffffffffffffffffffffffff16021790555086816001019081610a39919061175f565b5085816002019081610a4b919061175f565b508381600401819055508481600301819055506000816005018190555082816006019081610a79919061175f565b5060016000815480929190610a8d906114d9565b919050555060018054610aa09190611831565b9150509695505050505050565b604051806101200160405280600073ffffffffffffffffffffffffffffffffffffffff16815260200160608152602001606081526020016000815260200160008152602001600081526020016060815260200160608152602001606081525090565b6000604051905090565b600080fd5b600080fd5b6000819050919050565b610b3681610b23565b8114610b4157600080fd5b50565b600081359050610b5381610b2d565b92915050565b600060208284031215610b6f57610b6e610b19565b5b6000610b7d84828501610b44565b91505092915050565b600073ffffffffffffffffffffffffffffffffffffffff82169050919050565b6000610bb182610b86565b9050919050565b610bc181610ba6565b82525050565b600081519050919050565b600082825260208201905092915050565b60005b83811015610c01578082015181840152602081019050610be6565b60008484015250505050565b6000601f19601f8301169050919050565b6000610c2982610bc7565b610c338185610bd2565b9350610c43818560208601610be3565b610c4c81610c0d565b840191505092915050565b610c6081610b23565b82525050565b600060e082019050610c7b600083018a610bb8565b8181036020830152610c8d8189610c1e565b90508181036040830152610ca18188610c1e565b9050610cb06060830187610c57565b610cbd6080830186610c57565b610cca60a0830185610c57565b81810360c0830152610cdc8184610c1e565b905098975050505050505050565b600081519050919050565b600082825260208201905092915050565b6000819050602082019050919050565b610d1f81610ba6565b82525050565b6000610d318383610d16565b60208301905092915050565b6000602082019050919050565b6000610d5582610cea565b610d5f8185610cf5565b9350610d6a83610d06565b8060005b83811015610d9b578151610d828882610d25565b9750610d8d83610d3d565b925050600181019050610d6e565b5085935050505092915050565b600081519050919050565b600082825260208201905092915050565b6000819050602082019050919050565b610ddd81610b23565b82525050565b6000610def8383610dd4565b60208301905092915050565b6000602082019050919050565b6000610e1382610da8565b610e1d8185610db3565b9350610e2883610dc4565b8060005b83811015610e59578151610e408882610de3565b9750610e4b83610dfb565b925050600181019050610e2c565b5085935050505092915050565b60006040820190508181036000830152610e808185610d4a565b90508181036020830152610e948184610e08565b90509392505050565b6000602082019050610eb26000830184610c57565b92915050565b600081519050919050565b600082825260208201905092915050565b6000819050602082019050919050565b600082825260208201905092915050565b6000610f0082610bc7565b610f0a8185610ee4565b9350610f1a818560208601610be3565b610f2381610c0d565b840191505092915050565b600082825260208201905092915050565b6000610f4a82610cea565b610f548185610f2e565b9350610f5f83610d06565b8060005b83811015610f90578151610f778882610d25565b9750610f8283610d3d565b925050600181019050610f63565b5085935050505092915050565b600082825260208201905092915050565b6000610fb982610da8565b610fc38185610f9d565b9350610fce83610dc4565b8060005b83811015610fff578151610fe68882610de3565b9750610ff183610dfb565b925050600181019050610fd2565b5085935050505092915050565b6000610120830160008301516110256000860182610d16565b506020830151848203602086015261103d8282610ef5565b915050604083015184820360408601526110578282610ef5565b915050606083015161106c6060860182610dd4565b50608083015161107f6080860182610dd4565b5060a083015161109260a0860182610dd4565b5060c083015184820360c08601526110aa8282610ef5565b91505060e083015184820360e08601526110c48282610f3f565b9150506101008301518482036101008601526110e08282610fae565b9150508091505092915050565b60006110f9838361100c565b905092915050565b6000602082019050919050565b600061111982610eb8565b6111238185610ec3565b93508360208202850161113585610ed4565b8060005b85811015611171578484038952815161115285826110ed565b945061115d83611101565b925060208a01995050600181019050611139565b50829750879550505050505092915050565b6000602082019050818103600083015261119d818461110e565b905092915050565b6111ae81610ba6565b81146111b957600080fd5b50565b6000813590506111cb816111a5565b92915050565b600080fd5b600080fd5b7f4e487b7100000000000000000000000000000000000000000000000000000000600052604160045260246000fd5b61121382610c0d565b810181811067ffffffffffffffff82111715611232576112316111db565b5b80604052505050565b6000611245610b0f565b9050611251828261120a565b919050565b600067ffffffffffffffff821115611271576112706111db565b5b61127a82610c0d565b9050602081019050919050565b82818337600083830152505050565b60006112a96112a484611256565b61123b565b9050828152602081018484840111156112c5576112c46111d6565b5b6112d0848285611287565b509392505050565b600082601f8301126112ed576112ec6111d1565b5b81356112fd848260208601611296565b91505092915050565b60008060008060008060c0878903121561132357611322610b19565b5b600061133189828a016111bc565b965050602087013567ffffffffffffffff81111561135257611351610b1e565b5b61135e89828a016112d8565b955050604087013567ffffffffffffffff81111561137f5761137e610b1e565b5b61138b89828a016112d8565b945050606061139c89828a01610b44565b93505060806113ad89828a01610b44565b92505060a087013567ffffffffffffffff8111156113ce576113cd610b1e565b5b6113da89828a016112d8565b9150509295509295509295565b7f4e487b7100000000000000000000000000000000000000000000000000000000600052602260045260246000fd5b6000600282049050600182168061142e57607f821691505b602082108103611441576114406113e7565b5b50919050565b7f4e487b7100000000000000000000000000000000000000000000000000000000600052601160045260246000fd5b600061148182610b23565b915061148c83610b23565b92508282019050808211156114a4576114a3611447565b5b92915050565b7f4e487b7100000000000000000000000000000000000000000000000000000000600052603260045260246000fd5b60006114e482610b23565b91507fffffffffffffffffffffffffffffffffffffffffffffffffffffffffffffffff820361151657611515611447565b5b600182019050919050565b7f54686520646561646c696e652073686f756c642062652061206461746520696e60008201527f20746865206675747572652e0000000000000000000000000000000000000000602082015250565b600061157d602c83610bd2565b915061158882611521565b604082019050919050565b600060208201905081810360008301526115ac81611570565b9050919050565b60008190508160005260206000209050919050565b60006020601f8301049050919050565b600082821b905092915050565b6000600883026116157fffffffffffffffffffffffffffffffffffffffffffffffffffffffffffffffff826115d8565b61161f86836115d8565b95508019841693508086168417925050509392505050565b6000819050919050565b600061165c61165761165284610b23565b611637565b610b23565b9050919050565b6000819050919050565b61167683611641565b61168a61168282611663565b8484546115e5565b825550505050565b600090565b61169f611692565b6116aa81848461166d565b505050565b5b818110156116ce576116c3600082611697565b6001810190506116b0565b5050565b601f821115611713576116e4816115b3565b6116ed846115c8565b810160208510156116fc578190505b611710611708856115c8565b8301826116af565b50505b505050565b600082821c905092915050565b600061173660001984600802611718565b1980831691505092915050565b600061174f8383611725565b9150826002028217905092915050565b61176882610bc7565b67ffffffffffffffff811115611781576117806111db565b5b61178b8254611416565b6117968282856116d2565b600060209050601f8311600181146117c957600084156117b7578287015190505b6117c18582611743565b865550611829565b601f1984166117d7866115b3565b60005b828110156117ff578489015182556001820191506020850194506020810190506117da565b8683101561181c5784890151611818601f891682611725565b8355505b6001600288020188555050505b505050505050565b600061183c82610b23565b915061184783610b23565b925082820390508181111561185f5761185e611447565b5b9291505056fea264697066735822122047c34739bf3b3099f693b256a495ce15ac50ae6ed9e3ddca4f015afcbb4e0d6364736f6c63430008120033",
  "linkReferences": {},
  "deployedLinkReferences": {}
}